{
    "_format": "hh-sol-artifact-1",
    "contractName": "MultiSigWallet",
    "sourceName": "contracts/Multisig.sol",
    "abi": [
        {
            "inputs": [
                {
                    "internalType": "address[]",
                    "name": "_signers",
                    "type": "address[]"
                },
                {
                    "internalType": "uint256",
                    "name": "_numConfirmationsRequired",
                    "type": "uint256"
                }
            ],
            "stateMutability": "nonpayable",
            "type": "constructor"
        },
        {
            "anonymous": false,
            "inputs": [
                {
                    "indexed": true,
                    "internalType": "address",
                    "name": "signer",
                    "type": "address"
                },
                {
                    "indexed": true,
                    "internalType": "uint256",
                    "name": "txIndex",
                    "type": "uint256"
                }
            ],
            "name": "ConfirmTransaction",
            "type": "event"
        },
        {
            "anonymous": false,
            "inputs": [
                {
                    "indexed": true,
                    "internalType": "address",
                    "name": "delegate",
                    "type": "address"
                },
                {
                    "indexed": true,
                    "internalType": "address",
                    "name": "token",
                    "type": "address"
                },
                {
                    "indexed": true,
                    "internalType": "address",
                    "name": "to",
                    "type": "address"
                },
                {
                    "indexed": false,
                    "internalType": "uint256",
                    "name": "amount",
                    "type": "uint256"
                },
                {
                    "indexed": false,
                    "internalType": "uint256",
                    "name": "timestamp",
                    "type": "uint256"
                }
            ],
            "name": "DelegatedTransfer",
            "type": "event"
        },
        {
            "anonymous": false,
            "inputs": [
                {
                    "indexed": true,
                    "internalType": "address",
                    "name": "signer",
                    "type": "address"
                },
                {
                    "indexed": true,
                    "internalType": "address",
                    "name": "delegate",
                    "type": "address"
                },
                {
                    "indexed": true,
                    "internalType": "address",
                    "name": "token",
                    "type": "address"
                },
                {
                    "indexed": false,
                    "internalType": "uint256",
                    "name": "dailyLimit",
                    "type": "uint256"
                },
                {
                    "indexed": false,
                    "internalType": "uint256",
                    "name": "timestamp",
                    "type": "uint256"
                }
            ],
            "name": "DelegationCreated",
            "type": "event"
        },
        {
            "anonymous": false,
            "inputs": [
                {
                    "indexed": true,
                    "internalType": "address",
                    "name": "signer",
                    "type": "address"
                },
                {
                    "indexed": true,
                    "internalType": "address",
                    "name": "delegate",
                    "type": "address"
                },
                {
                    "indexed": true,
                    "internalType": "address",
                    "name": "token",
                    "type": "address"
                }
            ],
            "name": "DelegationRevoked",
            "type": "event"
        },
        {
            "anonymous": false,
            "inputs": [
                {
                    "indexed": true,
                    "internalType": "address",
                    "name": "sender",
                    "type": "address"
                },
                {
                    "indexed": false,
                    "internalType": "uint256",
                    "name": "amount",
                    "type": "uint256"
                },
                {
                    "indexed": false,
                    "internalType": "uint256",
                    "name": "balance",
                    "type": "uint256"
                }
            ],
            "name": "Deposit",
            "type": "event"
        },
        {
            "anonymous": false,
            "inputs": [
                {
                    "indexed": true,
                    "internalType": "address",
                    "name": "signer",
                    "type": "address"
                },
                {
                    "indexed": true,
                    "internalType": "uint256",
                    "name": "txIndex",
                    "type": "uint256"
                }
            ],
            "name": "ExecuteTransaction",
            "type": "event"
        },
        {
            "anonymous": false,
            "inputs": [
                {
                    "indexed": true,
                    "internalType": "address",
                    "name": "signer",
                    "type": "address"
                },
                {
                    "indexed": true,
                    "internalType": "uint256",
                    "name": "txIndex",
                    "type": "uint256"
                }
            ],
            "name": "RevokeConfirmation",
            "type": "event"
        },
        {
            "anonymous": false,
            "inputs": [
                {
                    "indexed": true,
                    "internalType": "address",
                    "name": "signer",
                    "type": "address"
                },
                {
                    "indexed": true,
                    "internalType": "uint256",
                    "name": "txIndex",
                    "type": "uint256"
                },
                {
                    "indexed": true,
                    "internalType": "address",
                    "name": "to",
                    "type": "address"
                },
                {
                    "indexed": false,
                    "internalType": "uint256",
                    "name": "value",
                    "type": "uint256"
                },
                {
                    "indexed": false,
                    "internalType": "bytes",
                    "name": "data",
                    "type": "bytes"
                }
            ],
            "name": "SubmitTransaction",
            "type": "event"
        },
        {
            "inputs": [
                {
                    "internalType": "address",
                    "name": "_token",
                    "type": "address"
                },
                {
                    "internalType": "address",
                    "name": "_delegate",
                    "type": "address"
                }
            ],
            "name": "confirmDelegation",
            "outputs": [],
            "stateMutability": "nonpayable",
            "type": "function"
        },
        {
            "inputs": [
                {
                    "internalType": "uint256",
                    "name": "_txIndex",
                    "type": "uint256"
                }
            ],
            "name": "confirmTransaction",
            "outputs": [],
            "stateMutability": "nonpayable",
            "type": "function"
        },
        {
            "inputs": [
                {
                    "internalType": "address",
                    "name": "_token",
                    "type": "address"
                },
                {
                    "internalType": "address",
                    "name": "_to",
                    "type": "address"
                },
                {
                    "internalType": "uint256",
                    "name": "_amount",
                    "type": "uint256"
                }
            ],
            "name": "delegatedTransfer",
            "outputs": [
                {
                    "internalType": "bool",
                    "name": "",
                    "type": "bool"
                }
            ],
            "stateMutability": "nonpayable",
            "type": "function"
        },
        {
            "inputs": [
                {
                    "internalType": "address",
                    "name": "",
                    "type": "address"
                },
                {
                    "internalType": "address",
                    "name": "",
                    "type": "address"
                },
                {
                    "internalType": "address",
                    "name": "",
                    "type": "address"
                }
            ],
            "name": "delegationConfirmations",
            "outputs": [
                {
                    "internalType": "bool",
                    "name": "",
                    "type": "bool"
                }
            ],
            "stateMutability": "view",
            "type": "function"
        },
        {
            "inputs": [
                {
                    "internalType": "address",
                    "name": "",
                    "type": "address"
                },
                {
                    "internalType": "address",
                    "name": "",
                    "type": "address"
                }
            ],
            "name": "delegations",
            "outputs": [
                {
                    "internalType": "address",
                    "name": "delegate",
                    "type": "address"
                },
                {
                    "internalType": "address",
                    "name": "token",
                    "type": "address"
                },
                {
                    "internalType": "uint256",
                    "name": "dailyLimit",
                    "type": "uint256"
                },
                {
                    "internalType": "uint256",
                    "name": "spentToday",
                    "type": "uint256"
                },
                {
                    "internalType": "uint256",
                    "name": "lastResetTime",
                    "type": "uint256"
                },
                {
                    "internalType": "bool",
                    "name": "isActive",
                    "type": "bool"
                },
                {
                    "internalType": "uint256",
                    "name": "numConfirmations",
                    "type": "uint256"
                }
            ],
            "stateMutability": "view",
            "type": "function"
        },
        {
            "inputs": [
                {
                    "internalType": "uint256",
                    "name": "_txIndex",
                    "type": "uint256"
                }
            ],
            "name": "executeTransaction",
            "outputs": [],
            "stateMutability": "nonpayable",
            "type": "function"
        },
        {
            "inputs": [
                {
                    "internalType": "address",
                    "name": "_token",
                    "type": "address"
                },
                {
                    "internalType": "address",
                    "name": "_delegate",
                    "type": "address"
                }
            ],
            "name": "getDelegationStatus",
            "outputs": [
                {
                    "internalType": "uint256",
                    "name": "dailyLimit",
                    "type": "uint256"
                },
                {
                    "internalType": "uint256",
                    "name": "spentToday",
                    "type": "uint256"
                },
                {
                    "internalType": "uint256",
                    "name": "remainingToday",
                    "type": "uint256"
                },
                {
                    "internalType": "uint256",
                    "name": "timeUntilReset",
                    "type": "uint256"
                },
                {
                    "internalType": "uint256",
                    "name": "confirmations",
                    "type": "uint256"
                },
                {
                    "internalType": "bool",
                    "name": "isActive",
                    "type": "bool"
                }
            ],
            "stateMutability": "view",
            "type": "function"
        },
        {
            "inputs": [],
            "name": "getSigners",
            "outputs": [
                {
                    "internalType": "address[]",
                    "name": "",
                    "type": "address[]"
                }
            ],
            "stateMutability": "view",
            "type": "function"
        },
        {
            "inputs": [
                {
                    "internalType": "address",
                    "name": "_token",
                    "type": "address"
                }
            ],
            "name": "getTokenBalance",
            "outputs": [
                {
                    "internalType": "uint256",
                    "name": "",
                    "type": "uint256"
                }
            ],
            "stateMutability": "view",
            "type": "function"
        },
        {
            "inputs": [
                {
                    "internalType": "uint256",
                    "name": "_txIndex",
                    "type": "uint256"
                }
            ],
            "name": "getTransaction",
            "outputs": [
                {
                    "internalType": "address",
                    "name": "to",
                    "type": "address"
                },
                {
                    "internalType": "uint256",
                    "name": "value",
                    "type": "uint256"
                },
                {
                    "internalType": "bytes",
                    "name": "data",
                    "type": "bytes"
                },
                {
                    "internalType": "bool",
                    "name": "executed",
                    "type": "bool"
                },
                {
                    "internalType": "uint256",
                    "name": "numConfirmations",
                    "type": "uint256"
                }
            ],
            "stateMutability": "view",
            "type": "function"
        },
        {
            "inputs": [],
            "name": "getTransactionCount",
            "outputs": [
                {
                    "internalType": "uint256",
                    "name": "",
                    "type": "uint256"
                }
            ],
            "stateMutability": "view",
            "type": "function"
        },
        {
            "inputs": [
                {
                    "internalType": "uint256",
                    "name": "",
                    "type": "uint256"
                },
                {
                    "internalType": "address",
                    "name": "",
                    "type": "address"
                }
            ],
            "name": "isConfirmed",
            "outputs": [
                {
                    "internalType": "bool",
                    "name": "",
                    "type": "bool"
                }
            ],
            "stateMutability": "view",
            "type": "function"
        },
        {
            "inputs": [
                {
                    "internalType": "address",
                    "name": "",
                    "type": "address"
                }
            ],
            "name": "isSigner",
            "outputs": [
                {
                    "internalType": "bool",
                    "name": "",
                    "type": "bool"
                }
            ],
            "stateMutability": "view",
            "type": "function"
        },
        {
            "inputs": [],
            "name": "numConfirmationsRequired",
            "outputs": [
                {
                    "internalType": "uint256",
                    "name": "",
                    "type": "uint256"
                }
            ],
            "stateMutability": "view",
            "type": "function"
        },
        {
            "inputs": [
                {
                    "internalType": "uint256",
                    "name": "_txIndex",
                    "type": "uint256"
                }
            ],
            "name": "revokeConfirmation",
            "outputs": [],
            "stateMutability": "nonpayable",
            "type": "function"
        },
        {
            "inputs": [
                {
                    "internalType": "address",
                    "name": "_token",
                    "type": "address"
                },
                {
                    "internalType": "address",
                    "name": "_delegate",
                    "type": "address"
                }
            ],
            "name": "revokeDelegation",
            "outputs": [],
            "stateMutability": "nonpayable",
            "type": "function"
        },
        {
            "inputs": [
                {
                    "internalType": "uint256",
                    "name": "",
                    "type": "uint256"
                }
            ],
            "name": "signers",
            "outputs": [
                {
                    "internalType": "address",
                    "name": "",
                    "type": "address"
                }
            ],
            "stateMutability": "view",
            "type": "function"
        },
        {
            "inputs": [
                {
                    "internalType": "address",
                    "name": "_token",
                    "type": "address"
                },
                {
                    "internalType": "address",
                    "name": "_delegate",
                    "type": "address"
                },
                {
                    "internalType": "uint256",
                    "name": "_dailyLimit",
                    "type": "uint256"
                }
            ],
            "name": "submitDelegation",
            "outputs": [],
            "stateMutability": "nonpayable",
            "type": "function"
        },
        {
            "inputs": [
                {
                    "internalType": "address",
                    "name": "_token",
                    "type": "address"
                },
                {
                    "internalType": "address",
                    "name": "_to",
                    "type": "address"
                },
                {
                    "internalType": "uint256",
                    "name": "_value",
                    "type": "uint256"
                }
            ],
            "name": "submitTokenTransaction",
            "outputs": [],
            "stateMutability": "nonpayable",
            "type": "function"
        },
        {
            "inputs": [
                {
                    "internalType": "address",
                    "name": "_to",
                    "type": "address"
                },
                {
                    "internalType": "uint256",
                    "name": "_value",
                    "type": "uint256"
                },
                {
                    "internalType": "bytes",
                    "name": "_data",
                    "type": "bytes"
                }
            ],
            "name": "submitTransaction",
            "outputs": [],
            "stateMutability": "nonpayable",
            "type": "function"
        },
        {
            "inputs": [
                {
                    "internalType": "uint256",
                    "name": "",
                    "type": "uint256"
                }
            ],
            "name": "transactions",
            "outputs": [
                {
                    "internalType": "address",
                    "name": "to",
                    "type": "address"
                },
                {
                    "internalType": "uint256",
                    "name": "value",
                    "type": "uint256"
                },
                {
                    "internalType": "bytes",
                    "name": "data",
                    "type": "bytes"
                },
                {
                    "internalType": "bool",
                    "name": "executed",
                    "type": "bool"
                },
                {
                    "internalType": "uint256",
                    "name": "numConfirmations",
                    "type": "uint256"
                }
            ],
            "stateMutability": "view",
            "type": "function"
        },
        {
            "stateMutability": "payable",
            "type": "receive"
        }
    ],
    "bytecode": "0x608060405234801561001057600080fd5b506040516124b53803806124b583398101604081905261002f91610265565b60008251116100785760405162461bcd60e51b815260206004820152601060248201526f1cda59db995c9cc81c995c5d5a5c995960821b60448201526064015b60405180910390fd5b600081118015610089575081518111155b6100e65760405162461bcd60e51b815260206004820152602860248201527f696e76616c6964206e756d626572206f6620726571756972656420636f6e6669604482015267726d6174696f6e7360c01b606482015260840161006f565b60005b82518110156102295760008382815181106101065761010661033e565b6020026020010151905060006001600160a01b0316816001600160a01b0316036101635760405162461bcd60e51b815260206004820152600e60248201526d34b73b30b634b21039b4b3b732b960911b604482015260640161006f565b6001600160a01b03811660009081526001602052604090205460ff16156101c05760405162461bcd60e51b81526020600482015260116024820152707369676e6572206e6f7420756e6971756560781b604482015260640161006f565b6001600160a01b031660008181526001602081905260408220805460ff191682179055815480820183559180527f290decd9548b62a8d60345a988386fc84ba6bc95484008f6362f93160ef3e56390910180546001600160a01b031916909217909155016100e9565b5060025550610354565b634e487b7160e01b600052604160045260246000fd5b80516001600160a01b038116811461026057600080fd5b919050565b6000806040838503121561027857600080fd5b82516001600160401b0381111561028e57600080fd5b8301601f8101851361029f57600080fd5b80516001600160401b038111156102b8576102b8610233565b604051600582901b90603f8201601f191681016001600160401b03811182821017156102e6576102e6610233565b60405291825260208184018101929081018884111561030457600080fd5b6020850194505b8385101561032a5761031c85610249565b81526020948501940161030b565b506020969096015195979596505050505050565b634e487b7160e01b600052603260045260246000fd5b612152806103636000396000f3fe60806040526004361061012e5760003560e01c80638b7de3ad116100ab578063b4b144671161006f578063b4b1446714610410578063c01a8c8414610430578063c642747414610450578063c64814dd14610470578063d0549b8514610522578063ee22610b1461053857600080fd5b80638b7de3ad1461033f5780638e96f67c1461038e57806394cf795e146103ae5780639ace38c2146103d0578063afef2def146103f057600080fd5b80633aecd0e3116100f25780633aecd0e3146102435780635bd1b14c14610263578063785f99c3146102b45780637df73e27146102d457806380f59a651461030457600080fd5b80632079fb9a1461017457806320ea8d86146101b15780632e7700f0146101d357806333ea3dc8146101f257806335e6e0211461022357600080fd5b3661016f576040805134815247602082015233917f90890809c654f11d6e72a28fa60149770a0d11ec6c92319d6ceb2bb0a4ea1a15910160405180910390a2005b600080fd5b34801561018057600080fd5b5061019461018f366004611b47565b610558565b6040516001600160a01b0390911681526020015b60405180910390f35b3480156101bd57600080fd5b506101d16101cc366004611b47565b610582565b005b3480156101df57600080fd5b506006545b6040519081526020016101a8565b3480156101fe57600080fd5b5061021261020d366004611b47565b61070d565b6040516101a8959493929190611ba6565b34801561022f57600080fd5b506101d161023e366004611bfd565b610808565b34801561024f57600080fd5b506101e461025e366004611c3a565b610b66565b34801561026f57600080fd5b506102a461027e366004611c5c565b600460209081526000938452604080852082529284528284209052825290205460ff1681565b60405190151581526020016101a8565b3480156102c057600080fd5b506101d16102cf366004611c9f565b610beb565b3480156102e057600080fd5b506102a46102ef366004611c3a565b60016020526000908152604090205460ff1681565b34801561031057600080fd5b506102a461031f366004611cd2565b600560209081526000928352604080842090915290825290205460ff1681565b34801561034b57600080fd5b5061035f61035a366004611c9f565b610db1565b6040805196875260208701959095529385019290925260608401526080830152151560a082015260c0016101a8565b34801561039a57600080fd5b506102a46103a9366004611bfd565b610f19565b3480156103ba57600080fd5b506103c36112ca565b6040516101a89190611cf5565b3480156103dc57600080fd5b506102126103eb366004611b47565b61132c565b3480156103fc57600080fd5b506101d161040b366004611c9f565b611405565b34801561041c57600080fd5b506101d161042b366004611bfd565b61155d565b34801561043c57600080fd5b506101d161044b366004611b47565b611633565b34801561045c57600080fd5b506101d161046b366004611d57565b6117c1565b34801561047c57600080fd5b506104e061048b366004611c9f565b6003602081815260009384526040808520909152918352912080546001820154600283015493830154600484015460058501546006909501546001600160a01b039485169694909316949192909160ff169087565b604080516001600160a01b0398891681529790961660208801529486019390935260608501919091526080840152151560a083015260c082015260e0016101a8565b34801561052e57600080fd5b506101e460025481565b34801561054457600080fd5b506101d1610553366004611b47565b611954565b6000818154811061056857600080fd5b6000918252602090912001546001600160a01b0316905081565b3360009081526001602052604090205460ff166105ba5760405162461bcd60e51b81526004016105b190611e2a565b60405180910390fd5b600654819081106105dd5760405162461bcd60e51b81526004016105b190611e59565b81600681815481106105f1576105f1611e84565b600091825260209091206003600590920201015460ff16156106255760405162461bcd60e51b81526004016105b190611e9a565b60006006848154811061063a5761063a611e84565b600091825260208083208784526005808352604080862033875290935291909320549102909101915060ff166106a55760405162461bcd60e51b815260206004820152601060248201526f1d1e081b9bdd0818dbdb999a5c9b595960821b60448201526064016105b1565b60018160040160008282546106ba9190611edd565b90915550506000848152600560209081526040808320338085529252808320805460ff191690555186927ff0dca620e2e81f7841d07bcc105e1704fb01475b278a9d4c236e1c62945edd5591a350505050565b600080606060008060006006878154811061072a5761072a611e84565b6000918252602090912060059091020180546001820154600383015460048401546002850180549596506001600160a01b039094169492939260ff90921691839061077490611ef0565b80601f01602080910402602001604051908101604052809291908181526020018280546107a090611ef0565b80156107ed5780601f106107c2576101008083540402835291602001916107ed565b820191906000526020600020905b8154815290600101906020018083116107d057829003601f168201915b50505050509250955095509550955095505091939590929450565b3360009081526001602052604090205460ff166108375760405162461bcd60e51b81526004016105b190611e2a565b6001600160a01b03821661088d5760405162461bcd60e51b815260206004820152601860248201527f696e76616c69642064656c65676174652061646472657373000000000000000060448201526064016105b1565b600081116108d35760405162461bcd60e51b81526020600482015260136024820152721a5b9d985b1a590819185a5b1e481b1a5b5a5d606a1b60448201526064016105b1565b6001600160a01b0380841660009081526003602090815260408083209386168352929052206005015460ff16156109405760405162461bcd60e51b815260206004820152601160248201527064656c65676174696f6e2065786973747360781b60448201526064016105b1565b60006040518060e00160405280846001600160a01b03168152602001856001600160a01b0316815260200183815260200160008152602001428152602001600015158152602001600181525090508060036000866001600160a01b03166001600160a01b031681526020019081526020016000206000856001600160a01b03166001600160a01b0316815260200190815260200160002060008201518160000160006101000a8154816001600160a01b0302191690836001600160a01b0316021790555060208201518160010160006101000a8154816001600160a01b0302191690836001600160a01b0316021790555060408201518160020155606082015181600301556080820151816004015560a08201518160050160006101000a81548160ff02191690831515021790555060c08201518160060155905050600160046000866001600160a01b03166001600160a01b031681526020019081526020016000206000856001600160a01b03166001600160a01b031681526020019081526020016000206000336001600160a01b03166001600160a01b0316815260200190815260200160002060006101000a81548160ff021916908315150217905550836001600160a01b0316836001600160a01b0316336001600160a01b03167f596be7f2f9c8c990222eb5af8b1eb7f5fed3d1e6e1416027e309f474aa81b2638542604051610b58929190918252602082015260400190565b60405180910390a450505050565b60006001600160a01b038216610b7d575047919050565b6040516370a0823160e01b81523060048201526001600160a01b038316906370a0823190602401602060405180830381865afa158015610bc1573d6000803e3d6000fd5b505050506040513d601f19601f82011682018060405250810190610be59190611f2a565b92915050565b3360009081526001602052604090205460ff16610c1a5760405162461bcd60e51b81526004016105b190611e2a565b6001600160a01b0380831660009081526003602090815260408083209385168352929052206005015460ff16610c8a5760405162461bcd60e51b81526020600482015260156024820152743737ba1030b1ba34bb32903232b632b3b0ba34b7b760591b60448201526064016105b1565b6001600160a01b038083166000908152600360208181526040808420948616845293905291812080546001600160a01b031990811682556001820180549091169055600281018290559182018190556004820181905560058201805460ff1916905560069091018190555b600054811015610d71576001600160a01b03808416600090815260046020908152604080832093861683529290529081208154909190819084908110610d3d57610d3d611e84565b60009182526020808320909101546001600160a01b031683528201929092526040019020805460ff19169055600101610cf5565b506040516001600160a01b03808416919083169033907f59ae3c34e9447e6c9676b72ba973ce1e412d1051a6da544ac93e2a07ef04259b90600090a45050565b6001600160a01b03808316600090815260036020818152604080842086861685528252808420815160e0810183528154871680825260018301549097169381019390935260028101549183019190915291820154606082015260048201546080820152600582015460ff16151560a082015260069091015460c082015290918291829182918291829190610e7e5760405162461bcd60e51b815260206004820152601460248201527319195b1959d85d1a5bdb881b9bdd08199bdd5b9960621b60448201526064016105b1565b6000816080015142610e909190611edd565b6060830151604084015191925090620151808310610eb75750506040820151600090610ece565b83606001518460400151610ecb9190611edd565b90505b8360400151828262015180861015610ef257610eed8662015180611edd565b610ef5565b60005b8760c001518860a00151995099509950995099509950505050509295509295509295565b6001600160a01b0383166000908152600360209081526040808320338452909152812060050154849060ff168015610f7757506001600160a01b03818116600090815260036020908152604080832033808552925290912054909116145b610fc35760405162461bcd60e51b815260206004820152601760248201527f6e6f7420617574686f72697a65642064656c656761746500000000000000000060448201526064016105b1565b6001600160a01b03841661100d5760405162461bcd60e51b81526020600482015260116024820152701a5b9d985b1a59081c9958da5c1a595b9d607a1b60448201526064016105b1565b6000831161104e5760405162461bcd60e51b815260206004820152600e60248201526d1a5b9d985b1a5908185b5bdd5b9d60921b60448201526064016105b1565b6001600160a01b0385166000908152600360209081526040808320338452909152812060048101549091906110839042611edd565b905062015180811061109d57600060038301554260048301555b81600201548583600301546110b29190611f43565b11156110f65760405162461bcd60e51b8152602060048201526013602482015272195e18d959591cc819185a5b1e481b1a5b5a5d606a1b60448201526064016105b1565b8482600301600082825461110a9190611f43565b90915550506001600160a01b0387166111bc576000866001600160a01b03168660405160006040518083038185875af1925050503d806000811461116a576040519150601f19603f3d011682016040523d82523d6000602084013e61116f565b606091505b50509050806111b65760405162461bcd60e51b8152602060048201526013602482015272115512081d1c985b9cd9995c8819985a5b1959606a1b60448201526064016105b1565b50611273565b60405163a9059cbb60e01b81526001600160a01b0387811660048301526024820187905288169063a9059cbb906044016020604051808303816000875af115801561120b573d6000803e3d6000fd5b505050506040513d601f19601f8201168201806040525081019061122f9190611f56565b6112735760405162461bcd60e51b81526020600482015260156024820152741d1bdad95b881d1c985b9cd9995c8819985a5b1959605a1b60448201526064016105b1565b604080518681524260208201526001600160a01b0380891692908a169133917f10530815e5daa4b508f5168cb7e80dbe7d5564ee6c7c31cf84113639f92b6f46910160405180910390a45060019695505050505050565b6060600080548060200260200160405190810160405280929190818152602001828054801561132257602002820191906000526020600020905b81546001600160a01b03168152600190910190602001808311611304575b5050505050905090565b6006818154811061133c57600080fd5b60009182526020909120600590910201805460018201546002830180546001600160a01b03909316945090929161137290611ef0565b80601f016020809104026020016040519081016040528092919081815260200182805461139e90611ef0565b80156113eb5780601f106113c0576101008083540402835291602001916113eb565b820191906000526020600020905b8154815290600101906020018083116113ce57829003601f168201915b505050506003830154600490930154919260ff1691905085565b3360009081526001602052604090205460ff166114345760405162461bcd60e51b81526004016105b190611e2a565b6001600160a01b038083166000908152600360209081526040808320938516835292905220600581015460ff16156114ae5760405162461bcd60e51b815260206004820152601960248201527f64656c65676174696f6e20616c7265616479206163746976650000000000000060448201526064016105b1565b6001600160a01b03808416600090815260046020908152604080832093861683529281528282203383529052908120805460ff1916600190811790915560068301805491929091611500908490611f43565b90915550506002546006820154106115225760058101805460ff191660011790555b6040516001600160a01b0383169033907f5cbe105e36805f7820e291f799d5794ff948af2a5f664e580382defb6339004190600090a3505050565b3360009081526001602052604090205460ff1661158c5760405162461bcd60e51b81526004016105b190611e2a565b6001600160a01b0383166115da5760405162461bcd60e51b8152602060048201526015602482015274696e76616c696420746f6b656e206164647265737360581b60448201526064016105b1565b604080516001600160a01b038416602482015260448082018490528251808303909101815260649091019091526020810180516001600160e01b031663a9059cbb60e01b17905261162d846000836117c1565b50505050565b3360009081526001602052604090205460ff166116625760405162461bcd60e51b81526004016105b190611e2a565b600654819081106116855760405162461bcd60e51b81526004016105b190611e59565b816006818154811061169957611699611e84565b600091825260209091206003600590920201015460ff16156116cd5760405162461bcd60e51b81526004016105b190611e9a565b6000838152600560209081526040808320338452909152902054839060ff16156117305760405162461bcd60e51b81526020600482015260146024820152731d1e08185b1c9958591e4818dbdb999a5c9b595960621b60448201526064016105b1565b60006006858154811061174557611745611e84565b90600052602060002090600502019050600181600401600082825461176a9190611f43565b90915550506000858152600560209081526040808320338085529252808320805460ff191660011790555187927f5cbe105e36805f7820e291f799d5794ff948af2a5f664e580382defb6339004191a35050505050565b3360009081526001602052604090205460ff166117f05760405162461bcd60e51b81526004016105b190611e2a565b600680546040805160a0810182526001600160a01b03878116825260208201878152928201868152600060608401819052600160808501819052860187559590955281517ff652222313e28459528d920b65115c16c04f3efc82aaedc97be59f3f377c0d3f6005860290810180546001600160a01b0319169290931691909117825592517ff652222313e28459528d920b65115c16c04f3efc82aaedc97be59f3f377c0d4084015593519293909290917ff652222313e28459528d920b65115c16c04f3efc82aaedc97be59f3f377c0d4101906118cd9082611fc7565b50606082015160038201805491151560ff199283161790556080909201516004909101556000828152600560209081526040808320338085529252918290208054909316600117909255516001600160a01b0386169183917fd5a05bf70715ad82a09a756320284a1b54c9ff74cd0f8cce6219e79b563fe59d90610b589088908890612086565b3360009081526001602052604090205460ff166119835760405162461bcd60e51b81526004016105b190611e2a565b600654819081106119a65760405162461bcd60e51b81526004016105b190611e59565b81600681815481106119ba576119ba611e84565b600091825260209091206003600590920201015460ff16156119ee5760405162461bcd60e51b81526004016105b190611e9a565b600060068481548110611a0357611a03611e84565b9060005260206000209060050201905060025481600401541015611a5d5760405162461bcd60e51b81526020600482015260116024820152700c6c2dcdcdee840caf0cac6eae8ca40e8f607b1b60448201526064016105b1565b60038101805460ff191660019081179091558154908201546040516000926001600160a01b03169190611a949060028601906120a7565b60006040518083038185875af1925050503d8060008114611ad1576040519150601f19603f3d011682016040523d82523d6000602084013e611ad6565b606091505b5050905080611b135760405162461bcd60e51b81526020600482015260096024820152681d1e0819985a5b195960ba1b60448201526064016105b1565b604051859033907f5445f318f4f5fcfb66592e68e0cc5822aa15664039bd5f0ffde24c5a8142b1ac90600090a35050505050565b600060208284031215611b5957600080fd5b5035919050565b6000815180845260005b81811015611b8657602081850181015186830182015201611b6a565b506000602082860101526020601f19601f83011685010191505092915050565b60018060a01b038616815284602082015260a060408201526000611bcd60a0830186611b60565b931515606083015250608001529392505050565b80356001600160a01b0381168114611bf857600080fd5b919050565b600080600060608486031215611c1257600080fd5b611c1b84611be1565b9250611c2960208501611be1565b929592945050506040919091013590565b600060208284031215611c4c57600080fd5b611c5582611be1565b9392505050565b600080600060608486031215611c7157600080fd5b611c7a84611be1565b9250611c8860208501611be1565b9150611c9660408501611be1565b90509250925092565b60008060408385031215611cb257600080fd5b611cbb83611be1565b9150611cc960208401611be1565b90509250929050565b60008060408385031215611ce557600080fd5b82359150611cc960208401611be1565b602080825282518282018190526000918401906040840190835b81811015611d365783516001600160a01b0316835260209384019390920191600101611d0f565b509095945050505050565b634e487b7160e01b600052604160045260246000fd5b600080600060608486031215611d6c57600080fd5b611d7584611be1565b925060208401359150604084013567ffffffffffffffff811115611d9857600080fd5b8401601f81018613611da957600080fd5b803567ffffffffffffffff811115611dc357611dc3611d41565b604051601f8201601f19908116603f0116810167ffffffffffffffff81118282101715611df257611df2611d41565b604052818152828201602001881015611e0a57600080fd5b816020840160208301376000602083830101528093505050509250925092565b6020808252601590820152743737ba1030baba3437b934bd32b21039b4b3b732b960591b604082015260600190565b6020808252601190820152701d1e08191bd95cc81b9bdd08195e1a5cdd607a1b604082015260600190565b634e487b7160e01b600052603260045260246000fd5b6020808252601390820152721d1e08185b1c9958591e48195e1958dd5d1959606a1b604082015260600190565b634e487b7160e01b600052601160045260246000fd5b81810381811115610be557610be5611ec7565b600181811c90821680611f0457607f821691505b602082108103611f2457634e487b7160e01b600052602260045260246000fd5b50919050565b600060208284031215611f3c57600080fd5b5051919050565b80820180821115610be557610be5611ec7565b600060208284031215611f6857600080fd5b81518015158114611c5557600080fd5b601f821115611fc257806000526020600020601f840160051c81016020851015611f9f5750805b601f840160051c820191505b81811015611fbf5760008155600101611fab565b50505b505050565b815167ffffffffffffffff811115611fe157611fe1611d41565b611ff581611fef8454611ef0565b84611f78565b6020601f82116001811461202957600083156120115750848201515b600019600385901b1c1916600184901b178455611fbf565b600084815260208120601f198516915b828110156120595787850151825560209485019460019092019101612039565b50848210156120775786840151600019600387901b60f8161c191681555b50505050600190811b01905550565b82815260406020820152600061209f6040830184611b60565b949350505050565b60008083546120b581611ef0565b6001821680156120cc57600181146120e157612111565b60ff1983168652811515820286019350612111565b86600052602060002060005b83811015612109578154888201526001909101906020016120ed565b505081860193505b50919594505050505056fea26469706673582212201fcb05885a9012da267d86bfa8656b4fa8b56c0258c191567d49b5bdcc7aa99c64736f6c634300081c0033",
    "linkReferences": {},
    "deployedLinkReferences": {}
}